{"abi":[{"type":"constructor","inputs":[{"name":"_usdc","type":"address","internalType":"address"},{"name":"_initialOwner","type":"address","internalType":"address"}],"stateMutability":"nonpayable"},{"type":"function","name":"MAX_MONTHLY_AMOUNT","inputs":[],"outputs":[{"name":"","type":"uint256","internalType":"uint256"}],"stateMutability":"view"},{"type":"function","name":"USDC","inputs":[],"outputs":[{"name":"","type":"address","internalType":"contract IERC20"}],"stateMutability":"view"},{"type":"function","name":"addRecipient","inputs":[{"name":"_recipient","type":"address","internalType":"address"},{"name":"_monthlyAmount","type":"uint256","internalType":"uint256"},{"name":"_role","type":"string","internalType":"string"}],"outputs":[],"stateMutability":"nonpayable"},{"type":"function","name":"checkAllowance","inputs":[],"outputs":[{"name":"","type":"uint256","internalType":"uint256"}],"stateMutability":"view"},{"type":"function","name":"getActiveRecipients","inputs":[],"outputs":[{"name":"addresses","type":"address[]","internalType":"address[]"},{"name":"amounts","type":"uint256[]","internalType":"uint256[]"},{"name":"roles","type":"string[]","internalType":"string[]"}],"stateMutability":"view"},{"type":"function","name":"getPaymentHistory","inputs":[{"name":"recipient","type":"address","internalType":"address"}],"outputs":[{"name":"periodIds","type":"uint256[]","internalType":"uint256[]"},{"name":"amounts","type":"uint256[]","internalType":"uint256[]"},{"name":"timestamps","type":"uint256[]","internalType":"uint256[]"},{"name":"paymentStatus","type":"bool[]","internalType":"bool[]"}],"stateMutability":"view"},{"type":"function","name":"owner","inputs":[],"outputs":[{"name":"","type":"address","internalType":"address"}],"stateMutability":"view"},{"type":"function","name":"pause","inputs":[],"outputs":[],"stateMutability":"nonpayable"},{"type":"function","name":"paused","inputs":[],"outputs":[{"name":"","type":"bool","internalType":"bool"}],"stateMutability":"view"},{"type":"function","name":"paymentPeriods","inputs":[{"name":"","type":"uint256","internalType":"uint256"}],"outputs":[{"name":"dueTimestamp","type":"uint256","internalType":"uint256"},{"name":"paid","type":"bool","internalType":"bool"}],"stateMutability":"view"},{"type":"function","name":"recipientList","inputs":[{"name":"","type":"uint256","internalType":"uint256"}],"outputs":[{"name":"","type":"address","internalType":"address"}],"stateMutability":"view"},{"type":"function","name":"recipients","inputs":[{"name":"","type":"address","internalType":"address"}],"outputs":[{"name":"monthlyAmount","type":"uint256","internalType":"uint256"},{"name":"role","type":"string","internalType":"string"},{"name":"isActive","type":"bool","internalType":"bool"}],"stateMutability":"view"},{"type":"function","name":"removeRecipient","inputs":[{"name":"_recipient","type":"address","internalType":"address"}],"outputs":[],"stateMutability":"nonpayable"},{"type":"function","name":"renounceOwnership","inputs":[],"outputs":[],"stateMutability":"nonpayable"},{"type":"function","name":"sendComp","inputs":[{"name":"_periodId","type":"uint256","internalType":"uint256"},{"name":"_recipientsToProcess","type":"address[]","internalType":"address[]"},{"name":"_termNumber","type":"uint256","internalType":"uint256"}],"outputs":[],"stateMutability":"nonpayable"},{"type":"function","name":"setPeriod","inputs":[{"name":"_periodId","type":"uint256","internalType":"uint256"},{"name":"_dueTimestamp","type":"uint256","internalType":"uint256"}],"outputs":[],"stateMutability":"nonpayable"},{"type":"function","name":"transferOwnership","inputs":[{"name":"newOwner","type":"address","internalType":"address"}],"outputs":[],"stateMutability":"nonpayable"},{"type":"function","name":"unpause","inputs":[],"outputs":[],"stateMutability":"nonpayable"},{"type":"function","name":"updateRecipient","inputs":[{"name":"_recipient","type":"address","internalType":"address"},{"name":"_newAmount","type":"uint256","internalType":"uint256"},{"name":"_role","type":"string","internalType":"string"}],"outputs":[],"stateMutability":"nonpayable"},{"type":"event","name":"CompensationPaid","inputs":[{"name":"periodId","type":"uint256","indexed":true,"internalType":"uint256"},{"name":"recipient","type":"address","indexed":true,"internalType":"address"},{"name":"amount","type":"uint256","indexed":false,"internalType":"uint256"},{"name":"role","type":"string","indexed":false,"internalType":"string"},{"name":"termNumber","type":"uint256","indexed":false,"internalType":"uint256"}],"anonymous":false},{"type":"event","name":"OwnershipTransferred","inputs":[{"name":"previousOwner","type":"address","indexed":true,"internalType":"address"},{"name":"newOwner","type":"address","indexed":true,"internalType":"address"}],"anonymous":false},{"type":"event","name":"Paused","inputs":[{"name":"account","type":"address","indexed":false,"internalType":"address"}],"anonymous":false},{"type":"event","name":"PeriodInitialized","inputs":[{"name":"periodId","type":"uint256","indexed":true,"internalType":"uint256"},{"name":"dueTimestamp","type":"uint256","indexed":false,"internalType":"uint256"}],"anonymous":false},{"type":"event","name":"RecipientAdded","inputs":[{"name":"recipient","type":"address","indexed":true,"internalType":"address"},{"name":"monthlyAmount","type":"uint256","indexed":false,"internalType":"uint256"},{"name":"role","type":"string","indexed":false,"internalType":"string"}],"anonymous":false},{"type":"event","name":"RecipientRemoved","inputs":[{"name":"recipient","type":"address","indexed":true,"internalType":"address"}],"anonymous":false},{"type":"event","name":"RecipientUpdated","inputs":[{"name":"recipient","type":"address","indexed":true,"internalType":"address"},{"name":"newAmount","type":"uint256","indexed":false,"internalType":"uint256"},{"name":"role","type":"string","indexed":false,"internalType":"string"}],"anonymous":false},{"type":"event","name":"Unpaused","inputs":[{"name":"account","type":"address","indexed":false,"internalType":"address"}],"anonymous":false}],"bytecode":{"object":"0x60a06040523480156200001157600080fd5b506040516200207a3803806200207a8339810160408190526200003491620000d9565b6200003f336200006c565b6000805460ff60a01b191690556001600160a01b03821660805262000064816200006c565b505062000111565b600080546001600160a01b038381166001600160a01b0319831681178455604051919092169283917f8be0079c531659141344cd1fd0a4f28419497f9722a3daafe3b4186f6b6457e09190a35050565b80516001600160a01b0381168114620000d457600080fd5b919050565b60008060408385031215620000ed57600080fd5b620000f883620000bc565b91506200010860208401620000bc565b90509250929050565b608051611f3f6200013b6000396000818161021f01528181610d3e015261101f0152611f3f6000f3fe608060405234801561001057600080fd5b50600436106101215760003560e01c80637da2ba7c116100ad578063cdb46d2911610071578063cdb46d291461025a578063eb8203121461026d578063efcf8f121461028f578063f2fde38b146102ce578063ffd428ca146102e157600080fd5b80637da2ba7c146101ef5780638456cb591461021257806389a302711461021a5780638da5cb5b146102415780639405de641461025257600080fd5b8063596cc190116100f4578063596cc190146101695780635c975abb1461018857806360f92a22146101a55780636d40f85b146101bc578063715018a6146101e757600080fd5b806303c5b1dc1461012657806312a291981461013b5780631871613b1461014e5780633f4ba83a14610161575b600080fd5b61013961013436600461187a565b6102f4565b005b6101396101493660046118b8565b6103e8565b61013961015c3660046118da565b6104a1565b6101396106ca565b6101756402540be40081565b6040519081526020015b60405180910390f35b600054600160a01b900460ff16604051901515815260200161017f565b6101ad6106dc565b60405161017f939291906119ec565b6101cf6101ca366004611aa3565b610a51565b6040516001600160a01b03909116815260200161017f565b610139610a7b565b6102026101fd3660046118b8565b610a8d565b60405161017f9493929190611abc565b610139610d2a565b6101cf7f000000000000000000000000000000000000000000000000000000000000000081565b6000546001600160a01b03166101cf565b610175610d3a565b610139610268366004611b3c565b610df0565b61028061027b3660046118b8565b611186565b60405161017f93929190611bc1565b6102b961029d366004611aa3565b6001602081905260009182526040909120805491015460ff1682565b6040805192835290151560208301520161017f565b6101396102dc3660046118b8565b611234565b6101396102ef3660046118da565b6112ad565b6102fc6113d1565b4281116103505760405162461bcd60e51b815260206004820152601c60248201527f4475652074696d657374616d70206d757374206265206675747572650000000060448201526064015b60405180910390fd5b60008281526001602081905260409091209081015460ff16156103ab5760405162461bcd60e51b815260206004820152601360248201527214195c9a5bd908185b1c9958591e481c185a59606a1b6044820152606401610347565b81815560405182815283907f6ede70134e2e62c53913d3f9181057179a82ed8baede7a335580c27f3a17a7d49060200160405180910390a2505050565b6103f06113d1565b6001600160a01b0381166000908152600260208190526040909120015460ff166104535760405162461bcd60e51b8152602060048201526014602482015273526563697069656e74206e6f742061637469766560601b6044820152606401610347565b6001600160a01b0381166000818152600260208190526040808320909101805460ff19169055517f8176fc5412eb5076fee7f1a264915b808c24d495c2698c189030e5200e707d259190a250565b6104a96113d1565b6001600160a01b0384166104f15760405162461bcd60e51b815260206004820152600f60248201526e496e76616c6964206164647265737360881b6044820152606401610347565b60008311801561050657506402540be4008311155b6105435760405162461bcd60e51b815260206004820152600e60248201526d125b9d985b1a5908185b5bdd5b9d60921b6044820152606401610347565b6001600160a01b0384166000908152600260208190526040909120015460ff16156105a15760405162461bcd60e51b815260206004820152600e60248201526d416c72656164792061637469766560901b6044820152606401610347565b604051806060016040528084815260200183838080601f01602080910402602001604051908101604052809392919081815260200183838082843760009201829052509385525050600160209384018190526001600160a01b038916835260028452604090922084518155928401519183019161061f915082611c82565b50604091820151600291909101805460ff1916911515919091179055600380546001810182556000919091527fc2575a0e9e593c00f959f8c92f12db2869c3395a3b0502d05e2516446f71f85b0180546001600160a01b0319166001600160a01b03871690811790915590517f4a8a82566343d82220901eed3caec613484528196a4b1a014957c5c13d0fcbf7906106bc90869086908690611d42565b60405180910390a250505050565b6106d26113d1565b6106da61142b565b565b60608060606000805b60035481101561075657600260006003838154811061070657610706611d78565b60009182526020808320909101546001600160a01b0316835282019290925260400190206002015460ff1615610744578161074081611d8e565b9250505b8061074e81611d8e565b9150506106e5565b508067ffffffffffffffff81111561077057610770611bec565b604051908082528060200260200182016040528015610799578160200160208202803683370190505b5093508067ffffffffffffffff8111156107b5576107b5611bec565b6040519080825280602002602001820160405280156107de578160200160208202803683370190505b5092508067ffffffffffffffff8111156107fa576107fa611bec565b60405190808252806020026020018201604052801561082d57816020015b60608152602001906001900390816108185790505b5091506000805b600354811015610a4957600260006003838154811061085557610855611d78565b60009182526020808320909101546001600160a01b0316835282019290925260400190206002015460ff1615610a37576003818154811061089857610898611d78565b9060005260206000200160009054906101000a90046001600160a01b03168683815181106108c8576108c8611d78565b60200260200101906001600160a01b031690816001600160a01b03168152505060026000600383815481106108ff576108ff611d78565b60009182526020808320909101546001600160a01b03168352820192909252604001902054855186908490811061093857610938611d78565b602002602001018181525050600260006003838154811061095b5761095b611d78565b60009182526020808320909101546001600160a01b031683528201929092526040019020600101805461098d90611c02565b80601f01602080910402602001604051908101604052809291908181526020018280546109b990611c02565b8015610a065780601f106109db57610100808354040283529160200191610a06565b820191906000526020600020905b8154815290600101906020018083116109e957829003601f168201915b5050505050848381518110610a1d57610a1d611d78565b60200260200101819052508180610a3390611d8e565b9250505b80610a4181611d8e565b915050610834565b505050909192565b60038181548110610a6157600080fd5b6000918252602090912001546001600160a01b0316905081565b610a836113d1565b6106da6000611480565b6060808080600060015b60648111610ad35760008181526001602052604090205415610ac15781610abd81611d8e565b9250505b80610acb81611d8e565b915050610a97565b508067ffffffffffffffff811115610aed57610aed611bec565b604051908082528060200260200182016040528015610b16578160200160208202803683370190505b5094508067ffffffffffffffff811115610b3257610b32611bec565b604051908082528060200260200182016040528015610b5b578160200160208202803683370190505b5093508067ffffffffffffffff811115610b7757610b77611bec565b604051908082528060200260200182016040528015610ba0578160200160208202803683370190505b5092508067ffffffffffffffff811115610bbc57610bbc611bec565b604051908082528060200260200182016040528015610be5578160200160208202803683370190505b509150600060015b60648111158015610bfd57508282105b15610d205760008181526001602052604090205415610d0e5780878381518110610c2957610c29611d78565b60200260200101818152505060026000896001600160a01b03166001600160a01b0316815260200190815260200160002060000154868381518110610c7057610c70611d78565b6020026020010181815250506001600082815260200190815260200160002060000154858381518110610ca557610ca5611d78565b60209081029190910181019190915260008281526001825260408082206001600160a01b038c1683526002019092522054845160ff90911690859084908110610cf057610cf0611d78565b9115156020928302919091019091015281610d0a81611d8e565b9250505b80610d1881611d8e565b915050610bed565b5050509193509193565b610d326113d1565b6106da6114d0565b60007f00000000000000000000000000000000000000000000000000000000000000006001600160a01b031663dd62ed3e610d7d6000546001600160a01b031690565b6040516001600160e01b031960e084901b1681526001600160a01b039091166004820152306024820152604401602060405180830381865afa158015610dc7573d6000803e3d6000fd5b505050506040513d601f19601f82011682018060405250810190610deb9190611db5565b905090565b610df8611513565b60008481526001602081905260409091209081015460ff1615610e515760405162461bcd60e51b815260206004820152601160248201527014195c9a5bd908199d5b1b1e481c185a59607a1b6044820152606401610347565b8054421015610e8e5760405162461bcd60e51b8152602060048201526009602482015268546f6f206561726c7960b81b6044820152606401610347565b600160005b84811015611166576000868683818110610eaf57610eaf611d78565b9050602002016020810190610ec491906118b8565b9050600060026000836001600160a01b03166001600160a01b0316815260200190815260200160002060405180606001604052908160008201548152602001600182018054610f1290611c02565b80601f0160208091040260200160405190810160405280929190818152602001828054610f3e90611c02565b8015610f8b5780601f10610f6057610100808354040283529160200191610f8b565b820191906000526020600020905b815481529060010190602001808311610f6e57829003601f168201915b50505091835250506002919091015460ff16151560209091015260408101519091508015610fd457506001600160a01b038216600090815260028601602052604090205460ff16155b15611097576001600160a01b03821660009081526002860160205260409020805460ff191660011790556110486110136000546001600160a01b031690565b82516001600160a01b037f00000000000000000000000000000000000000000000000000000000000000001691908590611560565b816001600160a01b0316897fc43d6d49d4966eeb01f35c74aab9f138c39bfe7c6b7f05ea7a648ceedf0aaa74836000015184602001518a60405161108e93929190611dce565b60405180910390a35b60005b6003548110156111505760026000600383815481106110bb576110bb611d78565b60009182526020808320909101546001600160a01b0316835282019290925260400190206002015460ff16801561113057508560020160006003838154811061110657611106611d78565b60009182526020808320909101546001600160a01b0316835282019290925260400190205460ff16155b1561113e5760009450611150565b8061114881611d8e565b91505061109a565b505050808061115e90611d8e565b915050610e93565b50801561117e576001828101805460ff191690911790555b505050505050565b600260205260009081526040902080546001820180549192916111a890611c02565b80601f01602080910402602001604051908101604052809291908181526020018280546111d490611c02565b80156112215780601f106111f657610100808354040283529160200191611221565b820191906000526020600020905b81548152906001019060200180831161120457829003601f168201915b5050506002909301549192505060ff1683565b61123c6113d1565b6001600160a01b0381166112a15760405162461bcd60e51b815260206004820152602660248201527f4f776e61626c653a206e6577206f776e657220697320746865207a65726f206160448201526564647265737360d01b6064820152608401610347565b6112aa81611480565b50565b6112b56113d1565b6001600160a01b0384166000908152600260208190526040909120015460ff166113185760405162461bcd60e51b8152602060048201526014602482015273526563697069656e74206e6f742061637469766560601b6044820152606401610347565b60008311801561132d57506402540be4008311155b61136a5760405162461bcd60e51b815260206004820152600e60248201526d125b9d985b1a5908185b5bdd5b9d60921b6044820152606401610347565b6001600160a01b0384166000908152600260205260409020838155600101611393828483611df7565b50836001600160a01b03167fd655d9f5ba131c6aec2c529bba0842cfffc2f68505a4e6f990a61a6938cc26678484846040516106bc93929190611d42565b6000546001600160a01b031633146106da5760405162461bcd60e51b815260206004820181905260248201527f4f776e61626c653a2063616c6c6572206973206e6f7420746865206f776e65726044820152606401610347565b6114336115c0565b6000805460ff60a01b191690557f5db9ee0a495bf2e6ff9c91a7834c1ba4fdd244a5e8aa4e537bd38aeae4b073aa335b6040516001600160a01b03909116815260200160405180910390a1565b600080546001600160a01b038381166001600160a01b0319831681178455604051919092169283917f8be0079c531659141344cd1fd0a4f28419497f9722a3daafe3b4186f6b6457e09190a35050565b6114d8611513565b6000805460ff60a01b1916600160a01b1790557f62e78cea01bee320cd4e420270b5ea74000d11b0c9f74754ebdbfc544b05a2586114633390565b600054600160a01b900460ff16156106da5760405162461bcd60e51b815260206004820152601060248201526f14185d5cd8589b194e881c185d5cd95960821b6044820152606401610347565b604080516001600160a01b0385811660248301528416604482015260648082018490528251808303909101815260849091019091526020810180516001600160e01b03166323b872dd60e01b1790526115ba908590611610565b50505050565b600054600160a01b900460ff166106da5760405162461bcd60e51b815260206004820152601460248201527314185d5cd8589b194e881b9bdd081c185d5cd95960621b6044820152606401610347565b6000611665826040518060400160405280602081526020017f5361666545524332303a206c6f772d6c6576656c2063616c6c206661696c6564815250856001600160a01b03166116ea9092919063ffffffff16565b90508051600014806116865750808060200190518101906116869190611eb8565b6116e55760405162461bcd60e51b815260206004820152602a60248201527f5361666545524332303a204552433230206f7065726174696f6e20646964206e6044820152691bdd081cdd58d8d9595960b21b6064820152608401610347565b505050565b60606116f98484600085611701565b949350505050565b6060824710156117625760405162461bcd60e51b815260206004820152602660248201527f416464726573733a20696e73756666696369656e742062616c616e636520666f6044820152651c8818d85b1b60d21b6064820152608401610347565b600080866001600160a01b0316858760405161177e9190611eda565b60006040518083038185875af1925050503d80600081146117bb576040519150601f19603f3d011682016040523d82523d6000602084013e6117c0565b606091505b50915091506117d1878383876117dc565b979650505050505050565b6060831561184b578251600003611844576001600160a01b0385163b6118445760405162461bcd60e51b815260206004820152601d60248201527f416464726573733a2063616c6c20746f206e6f6e2d636f6e74726163740000006044820152606401610347565b50816116f9565b6116f983838151156118605781518083602001fd5b8060405162461bcd60e51b81526004016103479190611ef6565b6000806040838503121561188d57600080fd5b50508035926020909101359150565b80356001600160a01b03811681146118b357600080fd5b919050565b6000602082840312156118ca57600080fd5b6118d38261189c565b9392505050565b600080600080606085870312156118f057600080fd5b6118f98561189c565b935060208501359250604085013567ffffffffffffffff8082111561191d57600080fd5b818701915087601f83011261193157600080fd5b81358181111561194057600080fd5b88602082850101111561195257600080fd5b95989497505060200194505050565b600081518084526020808501945080840160005b8381101561199157815187529582019590820190600101611975565b509495945050505050565b60005b838110156119b757818101518382015260200161199f565b50506000910152565b600081518084526119d881602086016020860161199c565b601f01601f19169290920160200192915050565b606080825284519082018190526000906020906080840190828801845b82811015611a2e5781516001600160a01b031684529284019290840190600101611a09565b50505083810382850152611a428187611961565b905083810360408501528085518083528383019150838160051b84010184880160005b83811015611a9357601f19868403018552611a818383516119c0565b94870194925090860190600101611a65565b50909a9950505050505050505050565b600060208284031215611ab557600080fd5b5035919050565b608081526000611acf6080830187611961565b602083820381850152611ae28288611961565b91508382036040850152611af68287611961565b8481036060860152855180825282870193509082019060005b81811015611b2d578451151583529383019391830191600101611b0f565b50909998505050505050505050565b60008060008060608587031215611b5257600080fd5b84359350602085013567ffffffffffffffff80821115611b7157600080fd5b818701915087601f830112611b8557600080fd5b813581811115611b9457600080fd5b8860208260051b8501011115611ba957600080fd5b95986020929092019750949560400135945092505050565b838152606060208201526000611bda60608301856119c0565b90508215156040830152949350505050565b634e487b7160e01b600052604160045260246000fd5b600181811c90821680611c1657607f821691505b602082108103611c3657634e487b7160e01b600052602260045260246000fd5b50919050565b601f8211156116e557600081815260208120601f850160051c81016020861015611c635750805b601f850160051c820191505b8181101561117e57828155600101611c6f565b815167ffffffffffffffff811115611c9c57611c9c611bec565b611cb081611caa8454611c02565b84611c3c565b602080601f831160018114611ce55760008415611ccd5750858301515b600019600386901b1c1916600185901b17855561117e565b600085815260208120601f198616915b82811015611d1457888601518255948401946001909101908401611cf5565b5085821015611d325787850151600019600388901b60f8161c191681555b5050505050600190811b01905550565b83815260406020820152816040820152818360608301376000818301606090810191909152601f909201601f1916010192915050565b634e487b7160e01b600052603260045260246000fd5b600060018201611dae57634e487b7160e01b600052601160045260246000fd5b5060010190565b600060208284031215611dc757600080fd5b5051919050565b838152606060208201526000611de760608301856119c0565b9050826040830152949350505050565b67ffffffffffffffff831115611e0f57611e0f611bec565b611e2383611e1d8354611c02565b83611c3c565b6000601f841160018114611e575760008515611e3f5750838201355b600019600387901b1c1916600186901b178355611eb1565b600083815260209020601f19861690835b82811015611e885786850135825560209485019460019092019101611e68565b5086821015611ea55760001960f88860031b161c19848701351681555b505060018560011b0183555b5050505050565b600060208284031215611eca57600080fd5b815180151581146118d357600080fd5b60008251611eec81846020870161199c565b9190910192915050565b6020815260006118d360208301846119c056fea2646970667358221220983adc83bc1afa0eb8b9a5508dab58379052d76b7137883727f38b59afd5f4bf64736f6c63430008130033","linkReferences":{}},"methodIdentifiers":{"MAX_MONTHLY_AMOUNT()":"596cc190","USDC()":"89a30271","addRecipient(address,uint256,string)":"1871613b","checkAllowance()":"9405de64","getActiveRecipients()":"60f92a22","getPaymentHistory(address)":"7da2ba7c","owner()":"8da5cb5b","pause()":"8456cb59","paused()":"5c975abb","paymentPeriods(uint256)":"efcf8f12","recipientList(uint256)":"6d40f85b","recipients(address)":"eb820312","removeRecipient(address)":"12a29198","renounceOwnership()":"715018a6","sendComp(uint256,address[],uint256)":"cdb46d29","setPeriod(uint256,uint256)":"03c5b1dc","transferOwnership(address)":"f2fde38b","unpause()":"3f4ba83a","updateRecipient(address,uint256,string)":"ffd428ca"},"id":27}